:1000000000800020B1010000DD010000DD010000E2
:10001000DD010000DD010000DD010000DD01000068
:10002000DD010000DD010000DD010000DD01000058
:10003000DD010000DD010000DD0100009924000069
:1000400091130000DD010000DD010000DD01000072
:10005000DD010000DD010000DD010000DD01000028
:10006000DD010000DD010000DD010000DD01000018
:10007000DD010000DD010000DD010000DD01000008
:10008000DD010000DD010000DD010000DD010000F8
:10009000DD010000DD010000DD010000DD010000E8
:1000A000DD010000DD01000025250000DD0100006C
:1000B000DD010000DD010000DD010000DD010000C8
:1000C000DD010000DD010000DD010000DD010000B8
:1000D000DD010000DD010000DD010000DD010000A8
:1000E00010B5054C237833B9044B13B10448AFF372
:1000F00000800123237010BD80000020000000005C
:10010000D8400000084B10B51BB108480849AFF3B0
:1001100000800848036803B910BD074B002BFBD0D3
:10012000BDE81040184700BF00000000D8400000A4
:10013000840000207C00002000000000154B002BF4
:1001400008BF134B9D46A3F5803A00218B460F460E
:100150001348144A121A02F0F1FF0F4B002B00D083
:1001600098470E4B002B00D0984700200021040038
:100170000D000D48002802D00C48AFF3008002F0BB
:1001800095FF2000290002F0B1FA02F07BFF00BFCA
:1001900000000800008000200000000000000000B7
:1001A00080000020BC0000200000000000000000D3
:1001B000064880470649074A074B9A42BEBF51F896
:1001C000040B42F8040BF8E7FFF7B8FF5D030000EB
:1001D000E44000000000002080000020FEE700BF97
:1001E00080B400AF044BDB6C1B0EDBB21846BD467F
:1001F0005DF8047B704700BFB081E00F80B582B02E
:1002000000AF00F01FF87860074B5B6803F00F0346
:100210001A467B68D3407B60044A7B6813607B6826
:1002200018460837BD4680BD00800C4008000020FD
:1002300080B400AF024B1846BD465DF8047B7047A2
:10024000006CDC0280B582B000AF334BDB6A03F494
:100250007053B3F5805F0AD0B3F5005F03D0B3F5F8
:10026000006F08D00BE02D4B1B687B6047E04FF41C
:1002700000437B6043E02A4B1B687B603FE0264BDA
:10028000DB6803F4E063B3F5007F1BD0B3F5007FB8
:1002900005D8002B24D0B3F5807F16D02BE0B3F522
:1002A000806F09D0B3F5A06F03D0B3F5407F06D0BF
:1002B00021E01C4B7B6021E01B4B7B601EE01B4B55
:1002C0007B601BE01A4B7B6018E0FFF789FF034659
:1002D000122B02D9174B7B6010E0174B7B600DE0AF
:1002E000FFF77EFF0346122B02D9144B7B6005E01B
:1002F000134B7B6002E000237B6000BF00BF064B16
:100300001B6803F4E0339B0B01337A68B2FBF3F311
:1003100018460837BD4680BD00800C400400002010
:1003200000000020003FAB01406F4001809FD500DE
:10033000C0D8A70040B56400C0CF6A00804F12004B
:1003400040420F0080B400AF034B1B681846BD4607
:100350005DF8047B704700BF0000002080B400AF50
:10036000BD465DF8047B704780B400AF4FF4004396
:100370001846BD465DF8047B704700BF80B400AFEF
:100380004FF47A731846BD465DF8047B704700BF92
:1003900080B400AF034B1B681846BD465DF8047B74
:1003A000704700BF0400002080B483B000AF7860C5
:1003B0003960FEE780B487B000AFF860B9607A605A
:1003C000FB6803F10473DA00BB6813449B007B6194
:1003D0007B697A681A601C37BD465DF8047B7047FC
:1003E00080B485B000AF786039607B6803F1047336
:1003F000DA003B6813449B00FB60FB681B681846EF
:100400001437BD465DF8047B704700BF80B584B0EB
:1004100000AF78607B68002B03D07B68B3F5004F9A
:1004200004D9084840F29661FFF7BEFF7B68B3FA33
:1004300083F3C3F11F03FB60FB6818461037BD460A
:1004400080BD00BF8C3B000080B400AF044BDB6C70
:100450001B0EDBB21846BD465DF8047B704700BF3B
:10046000B081E00F80B400AF054BDB6C03F47F0379
:100470001B0CDBB21846BD465DF8047B704700BF1D
:10048000B081E00F80B582B000AFFFF7EBFF03460D
:100490004A2B04D0792B02D0482B21D022E0164BD6
:1004A0001B699BB203F03F039BB21B02FB80124B04
:1004B0009B6903F0F0039AB2FB881343FB800E4B59
:1004C000DB6903F0F0031B099AB2FB881343FB803E
:1004D000FB88B3F5017F01D3084B09E0084B07E027
:1004E000074B05E007484FF48771FFF75DFF0023D6
:1004F00018460837BD4680BDD0FF0FE000366E01BC
:100500000048E801F03B000080B584B000AF78609F
:100510000123FB60FFF7B6FF02467B689A4204D3D3
:100520000023FB600023BB600BE0FFF7ABFF03463B
:100530005A007B689A4202D30123BB6001E0022388
:10054000BB6008481E21FA68FFF734FF0549054BD8
:100550005B6823F48072BB681B0213434B60103747
:10056000BD4680BD00800C4080B582B000AF05481C
:100570001E21FFF735FF78607B6818460837BD46B7
:1005800080BD00BF00800C4080B582B000AF244B1E
:100590005B6903F4E063B3F5007F1CD0B3F5007F23
:1005A00005D8002B25D0B3F5807F1FD02AE0B3F506
:1005B000C06F24D0B3F5E06F1ED0B3F5407F21D1DA
:1005C000FFF742FF0346122B02D9164B7B6021E056
:1005D000154B7B601EE0FFF737FF0346122B02D955
:1005E000124B7B6016E0124B7B6013E0114B7B607B
:1005F00010E0114B7B600DE0104B7B600AE0104B6C
:100600007B6007E00F484FF4C671FFF7CDFE002373
:100610007B6000BF7B6818460837BD4680BD00BFC1
:1006200000800C40804F120040420F0040B5640033
:10063000C0CF6A00C0D8A700809FD500406F40019E
:10064000003FAB01F03B000080B582B000AF0F4827
:1006500000F01AFC0346FB70FB78072B05D0092B32
:1006600007D1FFF7EFFD78600BE0FFF78DFF7860B3
:1006700007E007484FF4E371FFF796FE00237B6025
:1006800000BF7B6818460837BD4680BD06000C00D9
:10069000F03B000080B485B000AF78603960284B33
:1006A000DB6B002B14BF01230023BB72244B41F6EC
:1006B0007132DA63224B5B6803F00703FB60FB686F
:1006C000012B01D9042B02D10023FB7202E001238C
:1006D000FB7200BF7B681B4A934207D9FB7A002B51
:1006E00001D0052300E00423FB6016E07B68154A77
:1006F00093420BD87B68144A934207D9FB7A002BAC
:1007000001D0032300E00123FB6006E0FB7A002B0D
:1007100001D0022300E00023FB600949084B5B681D
:1007200023F00702FB6813434B60BB7A002B02D017
:10073000034B0022DA631437BD465DF8047B704733
:1007400000000C400048E8010024F40080B500AF30
:10075000FFF76EFD034618460021FFF79BFF80BDA3
:1007600080B582B000AF7860396078683968FFF78B
:1007700091FF0837BD4680BD90B585B000AF786069
:100780000023BB607B683B4A934208D03A4A9342BD
:1007900005D03A4840F2B531FFF706FE00E000BF51
:1007A000786800F071FB0346FB607B68314A934236
:1007B00003D0314A934206D00CE0314B9B6A03F0E0
:1007C0000303FB600CE02E4B9B6A03F00C039B08B9
:1007D000FB6005E029484FF47971FFF7E5FD00BFA4
:1007E000FB68032B39D801A252F823F0230800003C
:1007F000FD070000050800000D080000FFF7B4FD2C
:10080000B86032E0FFF7C4FDB8602EE0FFF7F6FCF9
:100810000446FFF7A9FE0346013324FA03F3BB6045
:1008200023E00023BB607B68124A934203D07B68BD
:10083000114A934210D1124B9A6A7B680D498B4240
:1008400001D1102300E0142322FA03F3002B03D07C
:10085000FFF794FDB86008E007E0084840F20E4159
:10086000FFF7A2FD0023BB6000BFBB68184614372A
:10087000BD4690BD02001A0003001C00F03B0000C2
:1008800000800C4080B483B000AF7860094B5B6D92
:1008900003F00103002B00D006E000BF054B1A6DEA
:1008A0007B681340002BF9D10C37BD465DF8047B03
:1008B000704700BF00800C4080B582B000AF104888
:1008C00000F0E2FA0346FB70FB78032B07D0092BFC
:1008D00009D0022B0BD1FFF75BFD78600AE0FFF730
:1008E00043FD786006E0FFF7ADFC786002E000238E
:1008F0007B6000BF7B6818460837BD4680BD00BFDF
:1009000007232200B0B584B000AF786039607B68FF
:100910001B0903F00F03FB60FB68013B062B00F291
:100920003A8101A252F823F045090000970B00001C
:10093000970B000083090000B50900000B0A0000B6
:10094000170B00003B68002B02D03B68082B04D932
:10095000954840F2BD61FFF727FDFFF7F7FE934989
:10096000924B1B6823F4E0323B68013B9B0313432B
:100970000B60FFF743FCB860B8680021FFF7F0FE9A
:100980000FE13B68002B03D03B68B3F5007F04D92F
:1009900085484FF4DA61FFF707FD3868FFF736FD49
:1009A00038608249814B9B6823F00F023B681343F8
:1009B0008B60F6E03B68002B03D03B68B3F5007F0B
:1009C00004D979484FF4DB61FFF7EEFCFFF7BEFE78
:1009D000FFF738FC02463B68B2FBF3F31846FFF71B
:1009E00093FD3868FFF712FD386070496F4B5B6804
:1009F00023F00F023B6813434B60FFF7FFFBB86027
:100A0000B8680021FFF7ACFECBE07B68684A9342F0
:100A100027D0674A934203D8664A934207D073E0CF
:100A2000654A934237D0654A934255D06CE03B68A3
:100A3000B3F5004F04D95C4840F2F361FFF7B4FC12
:100A40000420FFF71FFF3868FFF7E0FC38605749C4
:100A5000564B9B6E23F0F0023B681B0113438B66E1
:100A600058E03B68B3F5004F04D94F4840F201719C
:100A7000FFF79AFC0420FFF705FF3868FFF7C6FC74
:100A800038604A49494B9B6E23F470623B681B02F5
:100A900013438B663EE03B680F2B02D93B68802BEB
:100AA00004D941484FF4E261FFF77EFC0420FFF7D0
:100AB000E9FE3868FFF7AAFC38603C4D3B4B9B6E63
:100AC00023F440541020FFF7A1FC02463B689B1A18
:100AD0001B032343AB661DE03B68082B04D9324857
:100AE0004FF4E461FFF760FC0420FFF7CBFE3868A9
:100AF000FFF78CFC38602D492C4B9B6E23F00302D2
:100B00003B6813438B6605E0274840F22E71FFF7E0
:100B10004BFC00BF45E07B68294A934203D0294A39
:100B2000934218D030E03B68082B04D91E4840F2AD
:100B30003771FFF739FC4020FFF7A4FE3868FFF754
:100B400065FC38601949194B1B6F23F003023B68A1
:100B500013430B671EE03B68082B04D9124840F290
:100B60004671FFF721FC4020FFF78CFE3868FFF745
:100B70004DFC38600D490D4B1B6F23F030023B6874
:100B80001B0113430B6705E0074840F25471FFF760
:100B90000BFC00BF05E0044840F25A71FFF704FC6B
:100BA00000BF1037BD46B0BDF03B000000800C40D8
:100BB00060261400601610006000260060062A00FF
:100BC000700716007017180080B586B000AF786007
:100BD0000B46FB7000233B617B681B0A03F00F038D
:100BE000013B092B33D801A252F823F0290C000055
:100BF0002F0C0000150C00004F0C00004F0C0000E3
:100C0000350C00003F0C00004F0C00004F0C0000A2
:100C1000490C00001B4B7B611B4800F043F8034666
:100C20001846FFF771FC18E0184B7B6115E0184B74
:100C30007B6112E0174B7B6101233B610DE0164B9A
:100C40007B6110233B6108E0144B7B6105E0144895
:100C50004FF4FB61FFF7A8FB10E07B681B0B03F070
:100C60001F03FB603B69002B02D03869FFF70AFEC7
:100C7000FB787869F9681A46FFF79CFB1837BD4680
:100C800080BD00BF40800C400043020008800C4043
:100C900044800C4058800C4060800C4078800C40B0
:100CA000F03B000090B585B000AF78607B6803F43E
:100CB0007813B3F5B01F00F0AB80B3F5B01F1AD8AE
:100CC000B3F5402F00F0BF80B3F5402F08D8B3F53F
:100CD000003F3CD0B3F5802F2DD0002B27D0BEE0B5
:100CE000B3F5801F3CD0B3F5A01F47D0B3F5602FFC
:100CF00000F0AD80B3E0B3F5081F00F0AC80B3F5B1
:100D0000081F0AD8B3F5D01F25D0B3F5E01F7AD05D
:100D1000B3F5C01F00F08980A1E0B3F5201F4ED0CD
:100D2000B3F5281F62D0B3F5181F35D097E0FFF751
:100D300089FAF8609BE0FFF785FAF8604E4B9B68F4
:100D400003F00F031A46FB68D340FB608FE0FFF708
:100D500055FAF8608BE04948FFF70EFDF86086E031
:100D60004648FFF709FDF860434B9B6E03F0F00324
:100D70001B091A46FB68D340FB6078E03F48FFF749
:100D8000FBFCF8603C4B9B6E03F470631B0A1A4635
:100D9000FB68D340FB606AE03848FFF7EDFCF86081
:100DA000354B9B6E03F440531C0B1020FFF72EFBBA
:100DB000034623441A46FB68D340FB6057E02F48A4
:100DC000FFF7DAFCF8602C4B9B6E03F440531B0BCF
:100DD0001A46FB68D340FB60274BDB6F03F0070329
:100DE0000133FA68B2FBF3F3FB6040E02348FFF7FE
:100DF000C3FCF860204B9B6E03F003031A46FB68AC
:100E0000D340FB6033E01E48FFF7B6FCF8602EE0ED
:100E10001B48FFF7B1FCF860174B1B6F03F003038F
:100E20001A46FB68D340FB6021E01548FFF7A4FC9D
:100E3000F860114B1B6F03F030031B091A46FB6867
:100E4000D340FB6013E0FFF7FFFBF8600FE0FFF714
:100E50009BFBF8600BE0FFF72FFDF86007E0094807
:100E600040F6CC01FFF7A0FA0023FB6000BFFB684F
:100E700018461437BD4690BD00800C4002001A0091
:100E800003001C00F03B000080B584B000AF786028
:100E90000123FB737B6803F00F03BB60BB68013B5E
:100EA000062B00F2938001A252F823F0C90E000035
:100EB000FF0E00003B0F0000CD0F0000CD0F000023
:100EC000770F0000990F0000474BDB6A03F4705363
:100ED000B3F5805F09D0B3F5005F03D0B3F5006FC1
:100EE00006D008E00223FB7308E00323FB7305E050
:100EF0000423FB7302E00523FB7300BF6EE03A4B53
:100F00009B6A03F00303022B06D0032B07D0012BAF
:100F100008D10323FB730FE00223FB730CE00623CD
:100F2000FB7309E0304B9B6A03F48033002B02D043
:100F30000A23FB7300E000BF50E02B4B9B6A03F0D9
:100F40000C03082B06D00C2B07D0042B08D103234D
:100F5000FB730FE00223FB730CE00623FB7309E035
:100F6000214B9B6A03F48013002B02D00A23FB73EE
:100F700000E000BF32E01C4B1B6803F08053002BE5
:100F800003D0B3F1805F03D028E00723FB7302E0B6
:100F90000923FB7300BF21E0134BDB6A03F46033CA
:100FA000B3F5803F08D0B3F5003F08D0B3F5004F4C
:100FB00008D10923FB7308E00223FB7305E0032338
:100FC000FB7302E00123FB7300BF07E007484FF407
:100FD0004761FFF7E9F90023FB7300BFFB7B18466D
:100FE0001037BD4680BD00BF00800C40F03B0000C4
:100FF00080B588B000AF78600B46FB700323FB61BF
:101000000323FB7600233B617B6803F00F03FB6047
:10101000FB68013B062B00F2438101A252F823F04A
:101020003D1000002B1100002B110000A112000048
:10103000A1120000F91100002F120000FB78023B02
:10104000082B52D801A252F823F000BF7110000003
:101050007B10000085100000C7100000EB1000009E
:10106000EB100000EB100000EB100000DF100000A0
:101070000423FB610023FB763DE00323FB61012396
:10108000FB7638E00223FB610223FB76FFF7FAF9D7
:10109000034601331846FFF737FAFFF753F90246C4
:1010A000844B9A4206D9844A834B1B6843F0600301
:1010B000136020E0804A804B1B6823F0600343F0FC
:1010C0002003136017E00123FB610323FB76FFF786
:1010D000D9F9034601331846FFF716FA0BE07748B3
:1010E00040F61451FFF760F9E0E0744840F61951FA
:1010F000FFF75AF9DAE0FB7E18460121012200F0E1
:10110000E3F8FFF723FB6C4AFB6953626C48FFF777
:10111000C9FD03461846FFF7F7F9FFF76FF8B86007
:10112000B8680021FFF71CFBC0E0FB78013B092BEE
:101130003CD801A252F823F06111000067110000B1
:1011400077110000AD110000AD1100008711000003
:10115000AD110000AD110000AD110000A3110000A1
:1011600000237B6128E000200121012200F0ACF87F
:1011700002237B6120E001200121012200F0A4F87C
:1011800001237B6118E0FFF739F8B860B868FFF712
:10119000BBF94C4804210122FFF70CF903237B61C2
:1011A0000AE000237B6101233B6105E0434840F6F0
:1011B000B851FFF7F9F879E0FB68022B0DD13E49F1
:1011C0003D4B9B6A23F4803323F003037A691A436F
:1011D0003B691B0413438B6268E03749364B9B6ABB
:1011E00023F4801323F00C037A6992001A433B69BD
:1011F0001B0513438B6259E0FB78072B02D0092BA8
:1012000007D00DE02C4A2C4B1B6823F08053136051
:101210000CE0294A284B1B6843F08053136005E01B
:10122000264840F61361FFF7BFF83FE03EE0FB7849
:10123000032B13D0092B21D0022B2AD1002001210E
:10124000012200F041F81C4B40225A6200BF1A4BA9
:10125000DB6A03F48033002BF9D020E00120012168
:10126000012200F031F8144B60225A6200BF124B89
:10127000DB6A03F40033002BF9D010E00E4B202280
:101280005A6200BF0C4BDB6A03F40043002BF9D019
:1012900005E00A4840F65261FFF786F806E005E0EF
:1012A000064840F62771FFF77FF800BF2037BD469C
:1012B00080BD00BF0048E80100800C40F03B00000A
:1012C0000043020040800C4080B586B000AF03466A
:1012D000FB710B46BB7113467B71FB79042B32D833
:1012E00001A252F823F000BF3513000027130000BD
:1012F0000B130000FD1200001913000001233B61D5
:101300000223FB6001237B6123E004233B6108236C
:10131000FB6003237B611CE010233B612023FB6007
:1013200005237B6115E040233B618023FB6007239D
:101330007B610EE04FF480733B614FF40073FB6000
:1013400009237B6105E00F4841F2CC21FFF72CF81F
:1013500014E0BB79002B0ED00B4A3B6913627B79FA
:10136000002B0BD000BF09487969FFF739F8034615
:10137000002BF8D002E0044AFB6813621837BD4620
:1013800080BD00BFF03B000000800C402C800C4072
:1013900080B58AB000AF374B03F580531B68BB6143
:1013A000344B03F580530C331B68BA691340BB619F
:1013B000BB69002B04DA304840F21911FEF7F4FF44
:1013C0002C4B9B6B7B61BA697B6913403B620023AA
:1013D000FB6149E000237B623BE03B6A03F00103D1
:1013E000002B30D0234B9B683B6101227B6A02FAC1
:1013F00003F3FB601F4B03F580530833FA681A6050
:101400007B6A1B013A691344DB68BB60BB68002B35
:1014100019D0BB681B7A7B60BB681B7A83F0010321
:10142000DAB2BB681A72BB681B68002B0BD0BB68B2
:101430001B68786A7A68002A14BF01220022D1B2A0
:10144000BA68526898473B6A5B083B627B6A013323
:101450007B623B6A002BC0D17B69DA43BB691340D6
:101460003B62FB690133FB61FB69012BB2DD28376D
:10147000BD4680BD00200C40543C000080B500AF4C
:10148000FEF7BCFE80BD00BF80B400AF034B00225E
:10149000C3F88420BD465DF8047B704700800C4093
:1014A00080B400AF044B45F60E02C3F88420BD465D
:1014B0005DF8047B704700BF00800C4080B584B0AD
:1014C00000AF0346FB71FB79002B0BD12C4BDB6A81
:1014D0002C4A13601120FFF7D7FC03461A462A4B0B
:1014E0001A704AE0FB79012B47D1254BD3F88430A1
:1014F00003F00103FB60FFF7D3FF0023BB60214B28
:101500001B6803F00103BA681343BB601D4B1B68E3
:1015100003F01003BA681343BB601A4B1B6803F057
:101520004003BA681343BB60164B1B6803F0040307
:10153000BA681343BB60134B1B6803F48073BA682B
:101540001343BB600E4ABB6813620F4B1B78052B1D
:1015500005D00D4B1B7811201946FFF749FD094BAB
:101560001B6803F00103002B02D1054B02221A6213
:10157000FB68002B01D0FFF787FF1037BD4680BD09
:1015800000800C409C000020A000002080B483B0AC
:1015900000AF164B1B699BB203F03F039BB21B02CB
:1015A000FB80124B9B6903F0F0039AB2FB88134354
:1015B000FB800E4BDB6903F0F0031B099AB2FB883A
:1015C0001343FB80FB88B3F5827F03D3FB88B3F51D
:1015D000017F01D1012300E0002303F00103DBB20E
:1015E00018460C37BD465DF8047B7047D0FF0FE00E
:1015F00080B586B000AF0346FB71FB79002B02D0AB
:101600000020FFF75BFF1A4A194B1B6943F00403E4
:101610001361FFF7BBFF0346FB75FB7D002B11D069
:10162000144B1A68144B1340FB60124AFB68C2F853
:101630008030104B5B6823F046033B610D4A3B69E9
:10164000C2F8843030BFFB7D002B05D0094AFB680F
:101650001360084A3B695360FB79002B03D00120DB
:10166000FFF72CFF01E0FFF709FF1837BD4680BDEB
:1016700000ED00E000E100E09CF1FD0080B582B0EB
:1016800000AF03463960FB71FB79002B1FD0FB795B
:10169000012B19D0FB79022B13D0FB79032B0DD032
:1016A000FB79042B07D0FB79052B02D141F6FF73A0
:1016B0000FE000230DE04FF6FF730AE04FF6FF73D3
:1016C00007E04FF6FF7304E04FF6FF7301E04FF6BB
:1016D000FF733A68134103F00103002B04D10B4858
:1016E00040F25931FEF760FE0949FA793B68012062
:1016F00000FA03F318461346DB0013449B000B4427
:10170000103358600837BD4680BD00BFB83C0000AC
:101710000060004080B582B000AF03463960FB71C5
:10172000FB79002B1FD0FB79012B19D0FB79022B01
:1017300013D0FB79032B0DD0FB79042B07D0FB7959
:10174000052B02D141F6FF730FE000230DE04FF6A9
:10175000FF730AE04FF6FF7307E04FF6FF7304E0F4
:101760004FF6FF7301E04FF6FF733A68134103F041
:101770000103002B04D10B4840F28631FEF714FE22
:101780000949FA793B68012000FA03F31846134629
:10179000DB0013449B000B44103318600837BD4630
:1017A00080BD00BFB83C00000060004090B583B031
:1017B00000AF03460A46FB711346BB71FB79002B51
:1017C0000ED0FB79012B0BD0FB79022B08D0FB79D3
:1017D000032B05D0FB79042B02D0FB79052B02D11A
:1017E000BB79032B03D90D486A21FEF7DDFD0C48B8
:1017F000FA790B4CF9790B46DB000B449B00234430
:101800001B6823F00301BB7919431346DB00134423
:101810009B00034419600C37BD4690BD1C3D000081
:101820000060004090B585B000AFB9607B600346B2
:10183000FB731346BB73FB7B002B1FD0FB7B012B81
:1018400019D0FB7B022B13D0FB7B032B0DD0FB7B32
:10185000042B07D0FB7B052B02D141F6FF730FE071
:1018600000230DE04FF6FF730AE04FF6FF7307E029
:101870004FF6FF7304E04FF6FF7301E04FF6FF737E
:10188000BA68134103F00103002B04D137484FF429
:101890008571FEF789FDBB7B002B0DD07B68002B8B
:1018A00005D0FB7B1846B968FFF734FF04E0FB7BEB
:1018B0001846B968FFF7E2FEBB68072B1CD82C4C12
:1018C000FA7B2B48F97B0B46DB000B449B0003445F
:1018D0005968BB689B0018460F238340DB430B40CD
:1018E000B97BB8688000814019431346DB0013447C
:1018F0009B002344596024E01D4CFA7B1C48F97B73
:101900000B46DB000B449B00034408331968BB689B
:1019100003F18043083B9B0018460F238340DB43C1
:101920001940B87BBB6803F18043083B9B0000FA79
:1019300003F319431346DB0013449B00234408338D
:101940001960BB7B002B0DD17B68002B05D0FB7B86
:101950001846B968FFF7DEFE04E0FB7B1846B9685D
:10196000FFF78CFE1437BD4690BD00BF1C3D000044
:101970000060004080B582B000AF78600B46FB701D
:101980007B680A4A934203D00948EB21FEF70CFD1D
:10199000FB78002B03D07B6801225A6002E07B6851
:1019A00002225A600837BD4680BD00BF00200840B3
:1019B000803D000080B584B000AF786039600023BE
:1019C000FB607B683B4A934204D03B4840F247119E
:1019D000FEF7EAFC3B681B7883F00103DBB2002BC7
:1019E00008D07B689B6803F00103002B02D07B6862
:1019F00002225A603B685B78002B03D0FB6843F4FB
:101A00008053FB603B689B78002B03D0FB6843F45A
:101A10008063FB603B68DB78002B03D0FB6843F4FA
:101A20000063FB603B681B79002B03D0FB6843F429
:101A30000073FB603B685B79002B03D0FB6843F4C9
:101A40008073FB603B689B79002B03D0FB6843F0FD
:101A50004003FB603B68DB79002B03D0FB6843F05D
:101A60008003FB603B681B7A9B001A46FB681343AC
:101A7000FB603B685B7A1B011A46FB681343FB6003
:101A80003B689B7A1A46FB681343FB607B68FA68E5
:101A90001A603B681B78002B08D07B689B6803F0BA
:101AA0000103002B02D17B6801225A601037BD462A
:101AB00080BD00BF00200840803D000080B483B09E
:101AC00000AF786039607B681B6C03F00103002B6A
:101AD00000D006E000BF7B685A6C3B681340002BC7
:101AE000F9D10C37BD465DF8047B704780B586B0F0
:101AF00000AFF860B9607A607B68002B04D122489F
:101B000040F20511FEF750FCBB68002B17D1FB68B3
:101B10001E4A934202D11E4B7B610CE0FB681D4ABA
:101B2000934202D11C4B7B6105E0174840F22D1116
:101B3000FEF73AFC25E07869FFF7B4F8B860BB68B7
:101B40005A017B68B2FBF3F33B613B69203B3B618D
:101B50003B69DB003B613B6947F6F872934204D96D
:101B600009484FF49D71FEF71FFC3A6947F6F87378
:101B700013403B61F8680421FFF7A0FFFB683A6956
:101B8000DA601837BD4680BD983D0000004008402F
:101B900070071600004408407017180080B584B024
:101BA00000AF78600B46FB707B68124A934208D006
:101BB0007B68114A934204D010484FF4AF71FEF78E
:101BC000F3FBFB78DB43FB60FB6803F00503FB6082
:101BD000FB685B00FB60FB78FA681343FB60786886
:101BE0000221FFF76BFF7B68FA685A601037BD4629
:101BF00080BD00BF0040084000440840983D000000
:101C000080B483B000AF78600B46FB70FB78002B8C
:101C100008D000BF7B685B6C002BFBD17B68012286
:101C20001A6402E07B6800221A640C37BD465DF836
:101C3000047B704780B582B000AF786039607B6804
:101C40001D4A934208D07B681C4A934204D01C482A
:101C500040F2BF11FEF7A8FB78680221FFF72EFFC4
:101C60007B680A225A6078680121FFF7C9FF7B6808
:101C70001B6823F01C033A68127B13433A68527BBB
:101C800013433A68927B1A437B681A603B685A6830
:101C90003B689B68786811461A46FFF727FF3B6848
:101CA0001B781A467B685A6078680021FFF7A8FF06
:101CB0000837BD4680BD00BF0040084000440840D2
:101CC000983D000080B483B000AF786000BF7B68AF
:101CD0009B6803F02003002BF9D07B68DB69DBB243
:101CE00018460C37BD465DF8047B704780B582B05E
:101CF00000AF78600B46FB7000BF7B689B6803F009
:101D00001003002BF9D078684021FFF7D7FEFA784E
:101D10007B689A620837BD4680BD00BF80B584B03D
:101D200000AF78607B68002B03D11A483E21FEF794
:101D30003BFB194B5B69DBB203F00F03DBB29B008B
:101D4000FB73154B1B6903F0C0039B09DAB2FB7BE5
:101D50001343FB737B68FA7B9A700F4B1B69DBB2F2
:101D600003F03F03DAB27B685A700B4B9B69DBB21E
:101D700023F00F03FB73084BDB6903F0F0031B092F
:101D8000DAB2FB7B1343FB737B68FA7B1A70103764
:101D9000BD4680BD003E0000D0FF0FE080B586B09C
:101DA00000AFF860B9607A60FB707B68002B03D1EC
:101DB0004248B721FEF7F8FABB68002B03D1404830
:101DC000FEF770FFB860FB78202B15D0202B02DCCB
:101DD000002B05D037E0402B1AD0602B27D032E003
:101DE000BB681A097B689A4203D23448DD21FEF7AA
:101DF000DBFA10237B612BE0BB68DA087B689A4230
:101E000003D22E48E221FEF7CFFA08237B611FE0C0
:101E1000BB682C4AA2FB03239A087B689A4203D230
:101E20002648E721FEF7C0FA06237B6110E0BB6875
:101E30009A087B689A4203D22048EC21FEF7B4FA54
:101E400004237B6104E01D48F221FEF7ADFA32E085
:101E5000BB689A007B69796801FB03F35B08134454
:101E60003B617B697A6802FB03F33A69B2FBF3F3E7
:101E70003B613B69043B3B613B699B013B613B69C7
:101E8000114A934204D90D484FF48471FEF78CFA3D
:101E90003A690D4B13403B61FB681B6823F06002FD
:101EA000FB681A60FB681A68FB781A43FB681A60C3
:101EB000FB683A695A611837BD4680BD683E00002C
:101EC00040810400ABAAAAAAC0FF1F0080B584B05D
:101ED00000AF78600B46FB707B68144A934214D0C5
:101EE0007B68134A934210D07B68124A93420CD00D
:101EF0007B68114A934208D07B68104A934204D011
:101F00000F4840F20F21FEF74FFAFB78DB43FB60EE
:101F1000FB6803F00503FB60FB685A007B68DA602E
:101F2000FA787B68DA601037BD4680BD00C000409B
:101F300000C4004000C8004000E0004000E4004051
:101F4000683E000080B582B000AF786039607B6881
:101F5000264A934214D07B68254A934210D07B686E
:101F6000244A93420CD07B68234A934208D07B6872
:101F7000224A934204D0224840F23621FEF714FA56
:101F8000786800F03FF83B689B7C002B05D07B68AD
:101F90001B6843F080427B681A603B68DB7C002B47
:101FA00007D03B681B7D43F01003DBB21A467B6809
:101FB0009A653B685B7B1A463B681B8A13433A6809
:101FC000D2891A437B685A603B6859683B689A68B3
:101FD0003B681B7B7868FFF7E1FE3B681B781A467D
:101FE0007B68DA600837BD4680BD00BF00C0004096
:101FF00000C4004000C8004000E0004000E4004091
:10200000683E000080B582B000AF78607B68254AEA
:10201000934214D07B68244A934210D07B68234AB1
:1020200093420CD07B68224A934208D07B68214AB5
:10203000934204D0204840F24731FEF7B5F97B685F
:1020400040F6AA62DA607B6800221A607B6841F27F
:1020500005025A607B6800229A607B6800225A6100
:102060007B680022DA647B6841F6F9729A647B68C7
:1020700000225A657B680B4A934202D17B6800229A
:102080001A657B6800229A657B68074A934203D0F1
:102090007B68064A934202D17B680022DA650837E2
:1020A000BD4680BD00C0004000C4004000C80040E4
:1020B00000E0004000E40040683E000080B483B0CF
:1020C00000AF786000BF7B681B6903F08003002BC2
:1020D000F9D07B68DB69DBB218460C37BD465DF88A
:1020E000047B704780B483B000AF78600B46FB7010
:1020F00000BF7B681B6903F04003002BF9D0FA781E
:102100007B685A630C37BD465DF8047B704700BF9F
:1021100080B483B000AF0346FB71084997F90730DC
:102120005B09FA7902F01F02012000FA02F241F87D
:1021300023200C37BD465DF8047B704700E100E0CA
:1021400080B483B000AF03463960FB7197F9073064
:10215000002B0BDA0D49FB7903F00F03043B3A68BF
:10216000D2B25201D2B20B441A7609E0084997F96B
:1021700007303A68D2B25201D2B20B4483F800233E
:102180000C37BD465DF8047B704700BF00ED00E0F2
:1021900000E100E080B582B000AF78607B68013B71
:1021A000B3F1807F01D301230FE00A4A7B68013B32
:1021B00053604FF0FF300721FFF7C2FF054B0022AD
:1021C0009A60044B07221A60002318460837BD4660
:1021D00080BD00BF10E000E080B400AF044BDB6CBA
:1021E0001B0EDBB21846BD465DF8047B704700BF8E
:1021F000B081E00F80B485B000AF786039607B6853
:1022000003F10473DA003B6813449B00FB60FB6836
:102210001B6818461437BD465DF8047B704700BF45
:1022200080B582B000AF03463960FB71FB79002BAB
:102230001FD0FB79012B19D0FB79022B13D0FB792E
:10224000032B0DD0FB79042B07D0FB79052B02D192
:1022500041F6FF730FE000230DE04FF6FF730AE035
:102260004FF6FF7307E04FF6FF7304E04FF6FF737E
:1022700001E04FF6FF733A68134103F00103002BAE
:1022800004D10C484FF44F71FEF78EF8FA791346DB
:10229000DB0013449B001C3303F1804303F5C04370
:1022A00018463968FFF7A6FF034618460837BD46AB
:1022B00080BD00BF7C3E000080B582B000AF034609
:1022C0003960FB71FB79002B1FD0FB79012B19D0F2
:1022D000FB79022B13D0FB79032B0DD0FB79042B58
:1022E00007D0FB79052B02D141F6FF730FE00023E5
:1022F0000DE04FF6FF730AE04FF6FF7307E04FF66D
:10230000FF7304E04FF6FF7301E04FF6FF733A6886
:10231000134103F00103002B04D10B4840F2593163
:10232000FEF742F80949FA793B68012000FA03F305
:1023300018461346DB0013449B000B4410335860CF
:102340000837BD4680BD00BF7C3E000000600040F5
:1023500080B582B000AF03463960FB71FB79002B7A
:102360001FD0FB79012B19D0FB79022B13D0FB79FD
:10237000032B0DD0FB79042B07D0FB79052B02D161
:1023800041F6FF730FE000230DE04FF6FF730AE004
:102390004FF6FF7307E04FF6FF7304E04FF6FF734D
:1023A00001E04FF6FF733A68134103F00103002B7D
:1023B00004D10B4840F28631FDF7F6FF0949FA795E
:1023C0003B68012000FA03F318461346DB00134470
:1023D0009B000B44103318600837BD4680BD00BF1A
:1023E0007C3E00000060004080B582B000AFFFF787
:1023F000F3FE0346FB713B1D1846FFF78FFCFB798C
:102400000F2B0AD93B79022B07D9054A044B1B68CD
:1024100023F0500343F0100313600837BD4680BD1E
:10242000C0800C4080B483B000AF786039607B68B6
:10243000DA6A3B681A437B68DA620C37BD465DF89E
:10244000047B704780B485B000AF7860074B1B6891
:10245000FB6000BF054B1A68FB68D21A7B689A4282
:10246000F8D31437BD465DF8047B7047B4000020F4
:1024700080B485B000AF78600023FB6002E0FB68A9
:102480000133FB60FA687B689A42F8D31437BD4683
:102490005DF8047B704700BF80B400AF044B1B683D
:1024A0000133034A1360BD465DF8047B704700BFEB
:1024B000B400002080B586B000AF00237B6100230C
:1024C0003B6100237B7200233B7200237B7100235E
:1024D0003B710023BB720023FB720023BB730023FC
:1024E000BB710023FB7100233B7300237B733B1DF7
:1024F0000B481946FFF75EFA094B1B6A3B61084A15
:102500003B69936206480421FFF78CFF1A20FFF70E
:10251000FFFD03480121FFF72DFA1837BD4680BDA6
:102520000020084080B483B000AF084B1B6AFB80DA
:10253000064AFB889362064B1B680133044A13600A
:102540000C37BD465DF8047B704700BF0020084093
:10255000A400002090B585B000AF1B480121FEF714
:1025600033FB0220062104220123FFF75BF902203E
:10257000072101220023FFF755F9144B3C460FCBEE
:1025800084E80F0012480121FEF71EFB11480221CA
:10259000FEF72EFD10480121FEF716FB0E48012123
:1025A000FEF7B0F900233B703B460C481946FFF795
:1025B00041FB0A4B03225A6508480521FFF7EEFA52
:1025C0001437BD4690BD00BF40810400E03E0000CE
:1025D0000043020003001C0070171800004408406C
:1025E000B0B586B000AF11200521FEF701FD1A48F5
:1025F0000121FEF7E9FA19480121FEF7E5FA18482A
:102600000021FFF763FC0320002104220123FFF7D0
:1026100009F90320012101220023FFF703F9114BDF
:102620003C461D460FCD0FC495E8030084E8030027
:102630004FF41653BB603B4609481946FFF782FC2E
:10264000074B40F203125A6505480521FFF73EFC8F
:102650001837BD46B0BD00BF408104000012040021
:1026600000C40040F03E0000B0B586B000AF1120BD
:102670000521FEF7BDFC19480121FEF7A5FA18480F
:102680000121FEF7A1FA17480021FFF71FFC0420E3
:102690000A2104220123FFF7C5F804200B2101229F
:1026A0000023FFF7BFF8104B3C461D460FCD0FC46B
:1026B00095E8030084E803004FF41653BB603B46E3
:1026C00008481946FFF73EFC064B03225A650548A9
:1026D0000521FFF7FBFB1837BD46B0BD4081040064
:1026E0000002040000C00040F03E000080B584B04D
:1026F00000AFFFF779FE002001210122FEF7E4FD83
:102700002C480221FEF774FC2B480121FEF75CFAED
:102710002A480121FEF758FAFFF7CCFE284801218C
:10272000FEF752FA03200221FFF740F803200721A9
:1027300005220123FFF776F82248FEF7B3FA024696
:10274000214BA3FB02239B091846FFF723FD0346F9
:10275000002B00D0FEE74FF47A60FFF773FE0320F2
:102760000721FFF7A9FD4FF4FA60FFF76BFE032086
:102770000721FFF7EDFD00F02BF8F86000F056F9A7
:10278000B86000F039FB7860F868B9687A6800F0E2
:1027900083FA0120FEF72CFF0C4B00221A600B4B32
:1027A0001B681E2B03D1094B00221A6000E0F6E7DC
:1027B000E1E700BF02001A00004302006026140097
:1027C00000D2040050000200D34D6210A40000208B
:1027D00090B591B000AF744A07F1200392E803006E
:1027E000186004331970714A07F10C0392E8030072
:1027F0001860043319700A2000F098FCF862FB6A34
:10280000BB62002387F83E30002387F83D30002369
:1028100087F83C30002387F83B30002387F83A30B4
:10282000FFF722FF00200221FEF7C0FF0020072152
:1028300005220023FEF7F6FF00200721FFF788FDA1
:1028400040F6B830FFF7FEFD002387F83A3000234A
:102850007B630BE007F120027B6B13441B78544829
:102860001946FFF73FFC7B6B01337B637B6B032BCC
:10287000F0DD0CE04E48FFF721FC034687F83F30BF
:1028800097F83F30452B02D1012387F83A3097F86B
:102890003F300D2BEED197F83A30002B01D100BF1D
:1028A0004AE0D1E797F83D404148FFF707FC03466F
:1028B0001A4607F14003234403F82C2C97F83D30C7
:1028C00007F14002134413F82C3C2A2B02D10123B8
:1028D00087F83B3097F83D3007F14002134413F876
:1028E0002C3C0D2B23D1002387F83D3097F83B304B
:1028F000002B18D197F83C4007F11403184600F05C
:10290000B5FB0346DAB207F14003234403F8402C39
:1029100097F83E30013387F83E3097F83C3001336A
:1029200087F83C3008E0002387F83B3004E097F854
:102930003D30013387F83D3097F83E30092BB1D94F
:1029400000233B630BE007F10C023B6B13441B7845
:1029500017481946FFF7C6FB3B6B01333B633B6BE4
:10296000032BF0DD40F6B830FFF76CFD00200721A7
:10297000FFF7A2FC0E480021FFF7A8FA002387F812
:1029800027303B46184600F015F8034687F82730F5
:1029900097F827301846B96A0A2200F0C4FBFB6A90
:1029A00018464437BD4690BD083F0000103F000068
:1029B00000C0004080B489B000AF78600023BB61E4
:1029C00000237B6100233B6126E03B690133FB6010
:1029D0000FE03B697A6813441A78FB6879680B4406
:1029E0001B789A4202D17B6901337B61FB6801331A
:1029F000FB60FB68092BECDD7A69BB699A4206DB58
:102A00007B69BB613B697A6813441B78FB770023C1
:102A10007B613B6901333B613B69092BD5DDFB7F62
:102A200018462437BD465DF8047B704790B593B0D7
:102A300000AF734A07F1280392E8030018600433DB
:102A40001970704A07F1140392E803001860043308
:102A500019700A2000F06AFB38630023A7F844309D
:102A60000023A7F842300023A7F840300023FB875B
:102A70000023BB87FFF7B4FD01200221FEF796FE7D
:102A800001200A2105220023FEF7CCFE01200A21A5
:102A9000FFF75EFC40F6B830FFF7D4FC0023BB879D
:102AA0000023BB630BE007F12802BB6B13441B78C8
:102AB00055481946FFF716FBBB6B0133BB63BB6B75
:102AC000032BF0DD0BE05048FFF7F8FA034687F8D8
:102AD000473097F84730452B01D10123BB8797F842
:102AE00047300D2BEFD1B7F93C30002B01D100BF9F
:102AF0004FE0D3E7B7F942404348FFF7DFFA034618
:102B00001A4607F14803234403F82C2CB7F9423046
:102B100007F14802134413F82C3C2A2B01D101235E
:102B2000FB87B7F9423007F14802134413F82C3CF5
:102B30000D2B27D10023A7F84230B7F93E30002BE8
:102B40001DD1B7F9404007F11C03184600F08EFA7A
:102B500003469AB2630007F148010B4423F8482C5E
:102B6000B7F844309BB201339BB2A7F84430B7F8B2
:102B700040309BB201339BB2A7F8403009E00023FC
:102B8000FB8706E0B7F842309BB201339BB2A7F84F
:102B90004230B7F94430092BACDD00237B630BE0F6
:102BA00007F114027B6B13441B7817481946FFF793
:102BB00099FA7B6B01337B637B6B032BF0DD40F673
:102BC000B830FFF73FFC01200A21FFF775FB0E48E4
:102BD0000021FFF77BF90023FB853B46184600F0F8
:102BE00015F80346FB85B7F92E301846396B0A22D3
:102BF00000F099FA3B6B18464C37BD4690BD00BFBC
:102C0000083F0000103F000000C4004080B487B0BF
:102C100000AF78600023BB8200237B820023FB602F
:102C20002FE0FB680133BB6015E0FB685B007A684E
:102C300013441988BB685B007A6813441B880AB286
:102C40001BB29A4204D17B8A9BB201339BB27B8236
:102C5000BB680133BB60BB68092BE6DDB7F9122006
:102C6000B7F914309A4207DB7B8ABB82FB685B00B2
:102C70007A6813441B88FB8200237B82FB68013344
:102C8000FB60FB68092BCCDDFB8A1BB218461C37A6
:102C9000BD465DF8047B704780B5B8B002AFF86000
:102CA000B9607A6003200721FFF706FB4FF4FA6052
:102CB000FFF7C8FB03200721FFF74AFB44F620601B
:102CC000FFF7C0FBFFF746FC07F110027B6800939B
:102CD00010461549FA68BB6800F0E2FA1348002173
:102CE00000F02AF81248002100F026F807F110033E
:102CF0001846012100F020F80E481A21FEF7F6FFD1
:102D000041F28830FFF79EFB03200721FFF7D4FA3A
:102D10004FF4FA60FFF796FB03200721FFF718FB3B
:102D200000BFD837BD4680BD183F0000543F0000AB
:102D3000583F00000044084090B59FB000AF786055
:102D4000396007F108031846642100F093F907F190
:102D500008037B6700233B670AE03B6F7A681344F4
:102D60001B7823481946FEF7C1FF3B6F01333B67D1
:102D70003C6F786800F0B8FA03469C42EDD33B689C
:102D8000012B00D12FE01A48FEF79CFF034687F87D
:102D90006F301748FEF796FF034687F86F301448E8
:102DA000FEF790FF03461A467B6F1A707B6F1B7805
:102DB0000A2B07D07B6F1B78202B03D07B6F01334E
:102DC0007B67ECE77B6F01337B677B6F00221A70B8
:102DD00007F108031846074900F08EFA0346002B56
:102DE00000D100E0ADE700BF7C37BD4690BD00BF1D
:102DF00000440840703F000080B584B000AF0A2056
:102E000000F094F9786000F02BF800F041F80346E8
:102E1000FB70CC2000F0C6F8442000F0C3F800F0AE
:102E200037F80346FB70CC2000F0BCF8BE2000F061
:102E3000B9F80023BB6005E000F0D6F8F860BB6885
:102E40000133BB60BB68092BF6DDF86879680A229C
:102E500000F069F97B6818461037BD4680BD00BF99
:102E600080B500AF03200221FEF7A0FC032005215E
:102E700005220123FEF7D6FC03200221FEF796FC73
:102E80000320022105220123FEF7CCFC80BD00BFF8
:102E900080B584B000AF0123FB734FF49673BB6021
:102EA00023237B604FF482733B60B868FFF7E0FA3E
:102EB00003200521FFF700FAB868FFF7D9FA0320CD
:102EC0000521FFF745FA7868FFF7D2FA03200521BC
:102ED00001220123FEF7A6FC03200521FFF7A0F93C
:102EE0000346FB733868FFF7C3FAFB7B18461037BD
:102EF000BD4680BD80B582B000AF03200521FFF73D
:102F0000DBF903200521FFF723FA03200521FFF752
:102F100087F90346FB710220FFF7AAFAFB791846EE
:102F20000837BD4680BD00BF80B582B000AF00232A
:102F3000BB710023FB7113E0FFF7DCFF0346002B9E
:102F400008D0FB79012202FA03F3DAB2BB7913430A
:102F5000DBB2BB714620FFF78BFAFB790133FB71C3
:102F6000FB79072BE8D9BB7918460837BD4680BDE9
:102F700080B582B000AF0346FB7103200521FFF747
:102F80009BF9FB79012B03D103200521FFF7E0F921
:102F90003C20FFF76DFA03200521FFF7D9F9083728
:102FA000BD4680BD80B584B000AF0346FB710023F1
:102FB000FB730FE0FA79FB7B42FA03F3BB73BB7B35
:102FC00003F00103BB73BB7B1846FFF7D1FFFB7B0C
:102FD0000133FB73FB7B072BECD93C20FFF748FA4E
:102FE0001037BD4680BD00BF80B588B000AF00235C
:102FF000BB610BE0FFF798FF034619463A1DBB691A
:1030000013440A461A70BB690133BB61BB69082BC4
:10301000F0DD7B79FB753B79FB77FB7D802B02D85C
:10302000FB7F5B08FB77FB7D23F07F03FB75FB7D5C
:103030005BB2002B02DAFB7F5B42FB77FB7D5BB26E
:10304000002B02DAFB7F5B08FB77FB7D5BB2002B7A
:1030500002DAFB7F5B42FB77FB7F3B613B233B61FB
:103060003B6918462037BD4680BD00BF00210A22BB
:1030700000F0E0B90144884203D0002300F8013B8E
:10308000F9E7704708B5074B044613B10021AFF3C9
:103090000080054B1868836A03B19847204600F00A
:1030A00067FD00BF00000000783F00000E4B70B5C8
:1030B0001E460E4C0025E41AA410A54204D056F872
:1030C000253098470135F8E700F054FD084B094CCE
:1030D0001E46E41AA4100025A54204D056F8253057
:1030E00098470135F8E770BD740000207400002097
:1030F0007400002078000020931E222B10B50C468F
:1031000002D90020087010BD0A2A06D1002804DA6E
:103110002D230B704042012100E00021214400F0EA
:1031200097F9204610BDFFF7E7BF0000024B0146AC
:10313000186800F04FB800BF6C000020034602443E
:10314000934202D003F8011BFAE7704730B500291B
:103150003CD051F8042C0B1F1D49002AB8BF9B1806
:103160000A680C4612B95A600B6030BD93420DD20A
:1031700019685818904201BF5A5852181A6042688C
:1031800023605A6030BD994203D80A46516800292D
:10319000F9D1146815199D420AD11B682344D0182F
:1031A0008842136012D10868034413604B680CE036
:1031B00002D90C23036030BD1C681819884201BF76
:1031C00008684968001918605960536030BD00BF35
:1031D000AC00002070B5CC1C24F0030408340C2C87
:1031E00038BF0C24002C064603DA0C233360002081
:1031F00070BD8C42F9D3204A136810461946A1B11C
:103200000A68121B0ED40B2A03D90A608B188C5043
:103210001FE08B420BBF5A684A6802605A6018BFB1
:103220000B4616E00B464968E9E7144D2B681BB9BD
:10323000304600F025F828603046214600F020F89E
:10324000421C0346D1D0C51C25F0030585420AD196
:103250001C6003F10B001A1D20F00700821A0AD02F
:103260005142995070BD3046E91A00F009F801301A
:10327000BBD02B46ECE770BDAC000020A8000020BE
:1032800038B5064C002305460846236000F062FC72
:10329000431C02D1236803B12B6038BDB800002065
:1032A0000EB400B54FF402719CB0ADF814106FF07D
:1032B0000041049107914FF6FF711DABADF8161058
:1032C000084953F8042B02900690086802A901935C
:1032D00000F054F9029B00221A701CB05DF804EB58
:1032E00003B070476C000020034613F8012B002A3E
:1032F000FBD1181A0138704730B5037823B90B7821
:10330000002B18BF002030BD03461A7801303AB1B7
:1033100000228C5C34B19D5CA542F5D10132F8E706
:10332000104630BD184630BD2DE9F0470F46404CE1
:10333000D4F800903D4615F801EB09EB0E046678D1
:1033400006F0080404F0FF060CB12F46F2E77446BD
:103350002D2C03D1BD1C7C78012603E02B2C04BF4F
:103360007C78BD1C13B1102B0AD15AE0302C56D1F9
:103370002C7804F0DF04582C4CD16C7810230235E3
:10338000002E14BF4FF000486FF00048B8FBF3FA6E
:103390000027BE4603FB1A8809EB040C9CF801C009
:1033A0001CF0040F01D0303C0BE01CF0030C1BD0D0
:1033B000BCF1010F0CBF4FF0370C4FF0570CCCEBAA
:1033C00004049C4210DAB7F1FF3F0AD0D64506D874
:1033D00001D1444503DC03FB0E4E012701E04FF011
:1033E000FF3715F8014BD7E77C1C73460AD1002E36
:1033F0004FF0220114BF4FF000436FF00043016013
:103400002AB911E00EB1CEF100036AB107B1691E0D
:10341000116009E03024002BB2D10823B0E70A2361
:10342000AEE7302CACD1A3E71846BDE8F08700BF6B
:103430007000002030B505460C461346034A294665
:1034400010682246BDE83040FFF76EBF6C000020D8
:10345000F0B58BB003460F466D461A4C04F1200EB2
:103460002E4620686168083403C674453546F7D196
:10347000217920683171911E222930604FF00000BF
:1034800001D938701CE07D1EB3FBF2F402FB14334B
:103490000AAE334413F8283C411C05F8013F23468B
:1034A0000CB10846F0E77C543A18C11A8B4206DA90
:1034B000F95C1478FC5402F801190133F5E7384639
:1034C0000BB0F0BD7C3F00002DE9F0478E688246CE
:1034D000B3420C469046994640D38A8912F4906FC5
:1034E0003AD02568096902236F1A656905EB45051D
:1034F00095FBF3F57B1C4B449D4238BF1D4653059D
:103500000FD52946FFF766FE064698B121693A466F
:1035100000F0CAFAA38923F4906343F08003A381E7
:1035200013E02A4600F0E6FA064670B950462169D3
:10353000FFF70CFE0C23CAF80030A3894FF0FF30D0
:1035400043F04003A381BDE8F08726613E44266036
:103550004E466561ED1BA560B14500D24E46324630
:103560002068414600F0ABFAA36800209B1BA360D3
:1035700023681E442660BDE8F08700002DE9F04373
:103580009DB003938B8906461C060D4690460CD5CC
:103590000B6953B94021FFF71DFE2860286110B95F
:1035A0000C233360CCE040236B610023099320237C
:1035B0008DF8293030238DF82A3043461C4613F805
:1035C000012B1AB9B4EB08090FD002E0252AF5D176
:1035D000F8E73046294642464B46FFF775FF013073
:1035E00000F0A980099B4B4409932378002B00F03D
:1035F000A28000234FF0FF320493079305920693B5
:103600008DF853301A9304F101084446DFF84891CD
:1036100021784846052200F039FA08F10108049B98
:1036200030B1C9EB00000122824013430493ECE760
:10363000D80644BF20228DF85320190744BF2B22FF
:103640008DF8532022782A2A02D0079923460EE0CB
:10365000039A0134111D12680391002ABBBF524224
:1036600043F0020307920792B8BF04930AE01C4696
:1036700022780133303A092A03D80A2000FB0121BD
:10368000F5E7079123782E2B1AD163782A2B0AD1DC
:10369000039B02341A1D1B680392002BB8BF4FF026
:1036A000FF3305930CE0611C00220C4623780131A6
:1036B000303B092B03D80A2000FB0232F5E70592C4
:1036C000DFF8988021784046032200F0DFF938B116
:1036D000049AC8EB00004023834013430493013451
:1036E00021781A48062204F101088DF8281000F00C
:1036F000CDF988B1164B33B9039B073323F0070389
:103700000833039313E003AB0093304604A92A4621
:10371000104BAFF3008007E003AB0093304604A9E1
:103720002A460C4B00F092F8421C074603D0099B36
:103730003B44099341E7AB895B0601D4099801E05A
:103740004FF0FF301DB0BDE8F08300BFAC4000007B
:1037500000000000C9340000A2400000A8400000A2
:103760002DE9F84391461F468A680B690646934245
:10377000B8BF1346C9F8003091F843200C46DDF875
:10378000208012B10133C9F800302368990642BF86
:10379000D9F800300233C9F80030256815F0060565
:1037A0001CD094F843302268003318BF01239206DE
:1037B0001FD5E118302081F843005A1C94F84510B9
:1037C0002244023382F8431013E03046394604F1B4
:1037D00019020123C047013007D00135E368D9F849
:1037E00000209B1A9D42F0DBDBE74FF0FF30BDE885
:1037F000F8833046394604F14302C0470130F4D023
:103800002268D9F80050E36802F00602042A08BFD3
:103810005D1B2269A3680CBF25EAE575002593426C
:10382000C4BF9B1AED184FF00009A9450ADA3046CB
:10383000394604F11A020123C0470130D5D009F1FD
:103840000109F2E70020BDE8F88300002DE9FF41FF
:103850000C461746227E98466E2A06460A9B01F1C0
:10386000430100F0B08012D8632A23D00AD8002A7E
:1038700000F0BD80582A40F0CC8084F84520DFF865
:1038800004E257E0642A1ED0692A1CD0C1E0732AE2
:1038900000F0B18009D86F2A2ED0702A40F0B9808C
:1038A000226842F0200222603FE0752A24D0782A64
:1038B0003BD0AEE01A6804F14205111D196013688F
:1038C00084F84230A9E020681A6810F0800F02D016
:1038D000101D186008E010F0400F02F1040018609D
:1038E00002D0B2F9003000E01368002B3EDA2D223E
:1038F0005B4284F8432039E020681A6810F0800F9A
:1039000002D0101D186007E010F0400F02F1040013
:10391000186001D0138800E01368227EDFF864E1AC
:103920006F2A0CBF08220A221CE07822DFF858E137
:1039300084F845202268186812F0800F00F1040511
:103940001D6003D1550601D5038800E00368D00748
:1039500044BF42F0200222601BB9226822F02002FC
:1039600022601022002084F8430002E0DFF814E116
:103970000A226568002DA8BF2068A560A4BF20F0BA
:103980000400206003B965B10D46B3FBF2F002FB01
:1039900010331EF8033005F8013D03460028F4D12A
:1039A00000E00D46082A0BD12368DA0708D5236901
:1039B00062689A42DEBF302305F8013C05F1FF350D
:1039C000491B21612EE025681A6815F0800F606997
:1039D00003D0151D1D60136808E015F0400F02F1BB
:1039E00004051D60136801D0188000E018600023F2
:1039F00023610D4616E01A68111D19601568002133
:103A00002846626800F042F808B1401B60606368B5
:103A100004E004F1420584F84220012323610023DD
:103A200084F84330CDF800803046214603AA3B4657
:103A3000FFF796FE013002D14FF0FF301FE0304615
:103A400039462A462369C0470130F5D023689B07D1
:103A500005D4E068039B9842B8BF18460FE00025E4
:103A6000E368039A9B1A9D42F3DA3046394604F123
:103A700019020123C0470130DED00135F0E704B060
:103A8000BDE8F081B3400000C440000010B5C9B2E9
:103A900002449042034605D01C7801308C42F8D194
:103AA000184610BD002010BD10B5431E0A449142B7
:103AB00004D011F8014B03F8014FF8E710BD814223
:103AC00010B501EB020301D3421E0BE09842FBD27A
:103AD0008118D21AD34204D013F8014D01F8014DD8
:103AE000F8E710BD994204D011F8014B02F8014FDC
:103AF000F8E710BDF8B5074615460E4621B9114640
:103B0000BDE8F840FFF766BB1AB9FFF71FFB284670
:103B1000F8BD00F015F8A8420ED238462946FFF746
:103B200059FB044650B131462A46FFF7BDFF3846DF
:103B30003146FFF70BFB01E03046F8BD2046F8BDEB
:103B400051F8040C0028BEBF091851F8043CC018F5
:103B500004387047044A05491368002B08BF0B4618
:103B60001844106018467047B0000020C0000020C4
:103B7000FEE700BFF8B500BFF8BC08BC9E46704722
:103B8000F8B500BFF8BC08BC9E467047633A5C734A
:103B9000696C69636F6E6C6162735C73696D706C84
:103BA000696369747973747564696F5C76345C6495
:103BB0006576656C6F7065725C73646B735C67656A
:103BC000636B6F5F73646B5F73756974655C76318B
:103BD0002E315C706C6174666F726D5C656D6C69C2
:103BE000625C696E635C656D5F636D752E68000075
:103BF000433A2F53696C69636F6E4C6162732F5344
:103C0000696D706C696369747953747564696F2F39
:103C100076342F646576656C6F7065722F73646B94
:103C2000732F6765636B6F5F73646B5F7375697424
:103C3000652F76312E312F706C6174666F726D2F27
:103C4000656D6C69622F7372632F656D5F636D754F
:103C50002E630000433A2F53696C69636F6E4C61A9
:103C600062732F53696D706C6963697479537475ED
:103C700064696F2F76342F646576656C6F7065723A
:103C80002F73646B732F6765636B6F5F73646B5F18
:103C900073756974652F76312E312F706C6174667F
:103CA0006F726D2F656D6C69622F7372632F656D16
:103CB0005F646D612E630000633A5C73696C6963D5
:103CC0006F6E6C6162735C73696D706C696369744B
:103CD0007973747564696F5C76345C646576656C61
:103CE0006F7065725C73646B735C6765636B6F5F49
:103CF00073646B5F73756974655C76312E315C70CB
:103D00006C6174666F726D5C656D6C69625C696E26
:103D1000635C656D5F6770696F2E6800433A2F536F
:103D2000696C69636F6E4C6162732F53696D706C5F
:103D3000696369747953747564696F2F76342F647D
:103D40006576656C6F7065722F73646B732F676532
:103D5000636B6F5F73646B5F73756974652F763126
:103D60002E312F706C6174666F726D2F656D6C698A
:103D7000622F7372632F656D5F6770696F2E6300CA
:103D80002E2E2F656D6C69622F656D5F6C65746991
:103D90006D65722E63000000433A2F53696C6963AE
:103DA0006F6E4C6162732F53696D706C69636974D7
:103DB0007953747564696F2F76342F646576656CFA
:103DC0006F7065722F73646B732F6765636B6F5FC2
:103DD00073646B5F73756974652F76312E312F7044
:103DE0006C6174666F726D2F656D6C69622F737292
:103DF000632F656D5F6C65756172742E63000000E2
:103E0000433A2F53696C69636F6E4C6162732F5331
:103E1000696D706C696369747953747564696F2F27
:103E200076342F646576656C6F7065722F73646B82
:103E3000732F6765636B6F5F73646B5F7375697412
:103E4000652F76312E312F706C6174666F726D2F15
:103E5000656D6C69622F7372632F656D5F73797323
:103E600074656D2E630000002E2E2F656D6C6962E7
:103E70002F656D5F75736172742E6300633A5C73B6
:103E8000696C69636F6E6C6162735C73696D706C91
:103E9000696369747973747564696F5C76345C64A2
:103EA0006576656C6F7065725C73646B735C676577
:103EB000636B6F5F73646B5F73756974655C763198
:103EC0002E315C706C6174666F726D5C656D6C69CF
:103ED000625C696E635C656D5F6770696F2E680018
:103EE0000500000000000000802500000000000028
:103EF000050000000000000000C2010000050000F5
:103F00000010000000000000432C310D00000000F4
:103F1000432C300D000000004151554120424F54C8
:103F2000205741544552205155414C495459205233
:103F300045504F52543A0A50483A25730A4F52504E
:103F40003A25730A54656D70657261747572653ACD
:103F50002573460041540D0041542B434D47533DBA
:103F6000223137323037353537383131220D0000C4
:103F70004552524F520043000C0000203031323382
:103F80003435363738396162636465666768696AF3
:103F90006B6C6D6E6F707172737475767778797AF9
:103FA0000000202020202020202020282828282829
:103FB0002020202020202020202020202020202001
:103FC0002020881010101010101010101010101059
:103FD0001010040404040404040404041010101059
:103FE0001010104141414141410101010101010114
:103FF0000101010101010101010101010110101084
:1040000010101042424242424202020202020202E6
:104010000202020202020202020202020210101056
:104020001020000000000000000000000000000060
:104030000000000000000000000000000000000080
:104040000000000000000000000000000000000070
:104050000000000000000000000000000000000060
:104060000000000000000000000000000000000050
:104070000000000000000000000000000000000040
:104080000000000000000000000000000000000030
:104090000000000000000000000000000000000020
:1040A0000000232D302B2000686C4C0065666745AE
:1040B00046470030313233343536373839414243A0
:1040C0004445460030313233343536373839616251
:0C40D00063646566000000000000000052
:0840DC0060C0FF7F010000003D
:1040E400006CDC0200800000809FD500000000000E
:1040F40000000000000000000000000000000000BC
:10410400000000000000000000000000763F0000F6
:10411400000000000000000000000000000000009B
:10412400000000000000000000000000000000008B
:10413400000000000000000000000000000000007B
:104144000000000000000000000000000C0000203F
:10415400A13F000005010000E10000000000000094
:04000003000001B147
:00000001FF
